:020000040800F2
:10000000D80800208D040008650200086702000877
:100010006B0200086F020008730200080000000075
:10002000000000000000000000000000770200084F
:1000300079020008000000007B0200083F0200086F
:10004000A7040008A7040008A7040008A7040008E4
:10005000A7040008A7040008A7040008A7040008D4
:10006000A7040008A7040008A7040008A7040008C4
:10007000A7040008A7040008A7040008A7040008B4
:10008000A7040008A7040008A7040008A7040008A4
:10009000E32F000849300008A7040008A70400085F
:1000A000A7040008A7040008A7040008A704000884
:1000B000A7040008A7040008BF370008A704000829
:1000C000A7040008A7040008A7040008A704000864
:1000D000A7040008553E0008A7040008A70400086C
:1000E000A7040008A7040008A7040008A704000844
:1000F000A7040008A7040008A7040008A704000834
:10010000A7040008A7040008A7040008A704000823
:10011000A7040008A7040008A7040008A704000813
:10012000A7040008F73200086B400008A704000885
:10013000A7040008A7040008A7040008A7040008F3
:10014000A7040008A7040008A7040008A7040008E3
:10015000A7040008A7040008A7040008A7040008D3
:10016000A7040008A7040008A7040008A7040008C3
:10017000A7040008A7040008A7040008A7040008B3
:10018000A7040008A7040008DFF80CD004F07CFCEA
:10019000004800472D020008D808002042F63C0124
:1001A000484300E0401E0028FCDC704710B50020EA
:1001B00003F0D0F84FF47A60FFF7F0FFC82024492D
:1001C000086046F6BA0004F0A6F803F03FFA10BD46
:1001D00070B52049481EB0F1807F00D31BE0481E57
:1001E0004FF0E022506150170F22002807DA130762
:1001F0001D0E194B00F00F04241F1D5503E01307BB
:100200001C0E164B1C5400BF00204FF0E0229061E2
:100210000720106100BF02F07BFD03F0A5FB03F097
:10022000A1FA02F0BFFF04F051F970BD0C4801F0D3
:10023000CEFAFFF7CDFFFFF7B9FF00BFFEE710B51D
:100240000021084603F0F2FF03F0B3F910BD0000EF
:10025000A80000204090020018ED00E000E400E05B
:10026000D0000020704700BFFEE700BFFEE700BFE0
:10027000FEE700BFFEE77047704770470CB50020EF
:10028000019000907648006840F48030744908601E
:1002900000BF7348006800F4003000900198401CD3
:1002A0000190009818B90198B0F5A04FF1D16C48B1
:1002B000006800F4003010B10120009001E000203F
:1002C00000900098012846D165484030006840F011
:1002D00080506349403108606248006840F4404003
:1002E000604908605E48083000685D490831086070
:1002F0000846006840F4004008600846006840F482
:10030000A05008605848091F0860081F006840F0A6
:100310008070091F086000BF5148006800F000703D
:100320000028F9D040F20570504908604C48083068
:10033000006820F003004A49083108600846006858
:1003400040F00200086000BF45480830006800F037
:100350000C000828F8D10CBD10B54548006840F4E1
:100360007000434908603E48006840F001003C4985
:10037000086000203A4908310860394800683D4962
:100380000840374908603C48091D0860081F00689C
:1003900020F48020091F0860002031490C310860DA
:1003A000FFF76CFF4FF0006031498039086010BDE5
:1003B00070B500200022022300240221284D0835B8
:1003C0002D6805F00C0020B1042806D0082834D18F
:1003D00007E02A4D2A4E356033E02A4D284E35601D
:1003E0002FE01F4D2D1D2D68C5F380541C4D2D1D74
:1003F0002D6805F03F0154B1224DB5FBF1F5184EC3
:10040000361D3668C6F3881605FB06F209E01B4D5B
:10041000B5FBF1F5124E361D3668C6F3881605FB9E
:1004200006F20F4D2D1D2D68C5F301456D1C6B00A7
:10043000B2FBF3F5124E356003E0104D104E3560FF
:1004400000BF00BF064D08352D68C5F303150E4EDD
:10045000705D0B4D2D68C540094E356070BD0000C4
:10046000003802400070004008544007003C024041
:1004700088ED00E0FFFFF6FE103000240024F400B9
:100480000000002000127A00040000200648804787
:1004900006480047FEE7FEE7FEE7FEE7FEE7FEE769
:1004A000FEE7FEE7FEE7FEE75903000889010008C2
:1004B00032490143324A1160704770B50021002370
:1004C0000F22C4781CB32E4C246804F4E064C4F5F5
:1004D000E064C4F30721C1F10404E3B20A414478A3
:1004E0009C40E1B28478144021430C07210E254C36
:1004F00005786155047804F01F050124AC400578A7
:100500006D11AD0005F1E025C5F8004109E0047862
:1005100004F01F050124AC401B4D0678761145F808
:10052000264070BD194A0A400243154B1B1F1A6032
:10053000704739B1124A121D12680243104B1B1D3D
:100540001A6006E00E4A121D126882430C4B1B1DF6
:100550001A607047042808D14FF0E021096941F082
:1005600004014FF0E022116107E04FF0E02109693A
:1005700021F004014FF0E022116170470000FA05FC
:100580000CED00E000E400E080E100E080FFFF1FF0
:1005900010B50446FE48844209D10121480601F005
:1005A00085FA00214FF0007001F080FA08E0012187
:1005B000880601F07BFA00214FF0806001F076FAA6
:1005C00010BD30B5024600200023146824F0020458
:1005D0001460146844F00104146000E05B1C54686B
:1005E00004F001041CB94FF6FF74A342F6D154681D
:1005F00004F001040CB900206CE08C79012C04D1CA
:10060000146844F08004146003E0146824F080044B
:100610001460CC79012C04D1146844F040041460B7
:1006200003E0146824F0400414600C7A012C04D117
:10063000146844F02004146003E0146824F02004DB
:1006400014604C7A012C04D1146844F01004146036
:1006500003E0146824F0100414608C7A012C04D197
:10066000146844F00804146003E0146824F00804DB
:100670001460CC7A012C04D1146844F00404146092
:1006800003E0146824F0040414608C78A407CD7887
:1006900044EA05640D7944EA05444D7944EA055479
:1006A0000D886D1E2C43D461146824F0010414607D
:1006B000002300E05B1C546804F001041CB14FF6F9
:1006C000FF74A342F6D1546804F001040CB1002079
:1006D00000E0012030BD10B50021837A012202FA2A
:1006E00003F1AC4A126842F00102AA4B1A60A94A0F
:1006F0001C3212688A43A74B1C331A60027BCAB9AA
:10070000A44A0C3212688A43A24B0C331A60428806
:10071000C38842EA03439F4A4032847A42F8343025
:100720000288838842EA03439A4A4032847A02EB81
:10073000C4025360027B012A19D1964A0C32126816
:100740000A43944B0C331A604288038842EA0343FD
:10075000904A4032847A42F83430C288838842EA30
:1007600003438C4A4032847A02EBC4025360C27A5B
:100770003AB9884A121D12688A43864B1B1D1A60BB
:1007800006E0844A121D12680A43824B1B1D1A6040
:10079000028932B97F4A143212688A437D4B14337E
:1007A0001A600289012A06D17A4A143212680A4371
:1007B000784B14331A60427B012A06D1754A1C32E9
:1007C00012680A43734B1C331A60724A126822F093
:1007D0000102704B1A6010BD00218171C17101725C
:1007E00041728172C1728170C17003210171022155
:1007F00041710121018070476649096841F001019A
:10080000644A11601146096843F60E729143614AC9
:1008100011601146096841EA00211160114609681A
:1008200021F001011160704721B1026842F4803269
:10083000026003E0026822F4803202607047E1B196
:10084000026842F0800202604FF4C272125842F411
:1008500080734FF4C27213504FF4CA72125842F4AC
:1008600080734FF4CA7213504FF4D272125842F48C
:1008700080734FF4D27213501BE0026822F08002A2
:1008800002604FF4C272125822F480734FF4C272A5
:1008900013504FF4CA72125822F480734FF4CA7284
:1008A00013504FF4D272125822F480734FF4D27264
:1008B0001350704710B502460020936803F0806320
:1008C000B3F1806F00D110E0936803F00063B3F1DF
:1008D000006F01D1012008E0936803F08053B3F169
:1008E000805F01D1022000E00420042879D002F5C5
:1008F000C07303EB00131B6803F0010402F5C0731F
:1009000003EB00131C600B7A7BB94B7A0C8843EA2B
:10091000445302F5C07404EB00142468234302F529
:10092000C07404EB0014236010E00B7A4C6843EAB7
:10093000C4034C7A234302F5C07404EB001424680A
:10094000234302F5C07404EB001423608B7A03F098
:100950000F038B7202F5C07303EB00135B6823F087
:100960000F0402F5C07303EB00135C6002F5C07363
:1009700003EB00135B688C7A234302F5C07404EB2D
:10098000001463608B7B1C064B7B44EA034403E04A
:1009900000640040006600400B7B44EA0323CC7AED
:1009A000234302F5C07404EB0014A3608B7C1C0687
:1009B0004B7C44EA03440B7C44EA0323CC7B234373
:1009C00002F5C07404EB0014E36002F5C07303EB9E
:1009D00000131B6843F0010402F5C07303EB00131E
:1009E0001C6010BD10B50246002321B1012907D0BB
:1009F00002290FD109E09068F94C00EA04030BE0EA
:100A00009068F84C00EA040306E09068F64C00EAAF
:100A1000040301E0002300BF00BFF44C181BA342F5
:100A200016D007DC83B16FF08060184470B10228E3
:100A300018D111E0B0F5007F10D0ED4C204448B142
:100A4000B0F5003F0ED10BE002230DE000230BE0D8
:100A5000002309E0002307E0012305E0012303E070
:100A6000012301E0002300BF00BFD8B210BD21B1B7
:100A7000012907D002290FD109E0826842F08002E3
:100A800082600AE0826842F40042826005E0826887
:100A900042F40002826000E000BF00BF704710B562
:100AA00000F5D87303EB01131B6803F00403137202
:100AB000137A53B900F5D87303EB01131B6840F2A6
:100AC000FF7404EA5353136009E000F5D87303EB95
:100AD00001131B686FF0604404EAD303536000F510
:100AE000D87303EB01131B6803F00203537200F584
:100AF000D87303EB01135B6803F00F03937200F5E7
:100B0000D87303EB01135B681B0AD37400F5D87329
:100B100003EB01139B68D37200F5D87303EB011349
:100B20009B681C0A147300F5D87303EB01139B68D0
:100B30001C0C547300F5D87303EB01139B681B0E58
:100B4000937300F5D87303EB0113DB68D37300F5DF
:100B5000D87303EB0113DB681C0A147400F5D87317
:100B600003EB0113DB681C0C547400F5D87303EB22
:100B70000113DB681B0E937421B9C36843F0200393
:100B8000C36003E0036943F02003036110BD21B992
:100B9000C26842F02002C26003E0026942F0200213
:100BA000026170470246002019B9D36803F00300C0
:100BB00006E0012903D1136903F0030000E00020DF
:100BC000704710B502460B4600204FF6FF71BBB9C7
:100BD000146824F0020444F00104146000E0491E8B
:100BE000546804F00304012C01D00029F7D15468A3
:100BF00004F00304012C01D0002032E0012030E099
:100C0000012B13D1146824F00304146000E0491E82
:100C1000546804F003040CB10029F8D1546804F0BE
:100C200003040CB100201CE001201AE0022B17D1B4
:100C3000146824F0010444F00204146000E0491E2A
:100C4000546804F00304022C01D00029F7D1546841
:100C500004F00304022C01D0002002E0012000E097
:100C6000002010BD014600200A6822F0010242F077
:100C700002020A604A6802F00302022A00D101203F
:100C8000704701464FF6FF7200200B6823F0020305
:100C90000B6000E0521E4B6803F00203022B01D1EF
:100CA000002AF7D14B6803F00203022B00D0012089
:100CB0007047014600208A6902F0700070470146C3
:100CC00000208A69100E7047014600208A69C2F32D
:100CD000074070471AB143690B43436102E043691F
:100CE0008B434361704710B50246002001F4700346
:100CF00043B19369C1F3130423400BB101202DE0EC
:100D000000202BE001F0807343B15368C1F313045A
:100D100023400BB1012021E000201FE001F000631F
:100D200043B19368C1F3130423400BB1012015E0D4
:100D3000002013E001F0007343B1D368C1F3130442
:100D400023400BB1012009E0002007E01369C1F343
:100D5000130423400BB1012000E0002010BD00224D
:100D6000244B994202D10023836111E0C1F31302A5
:100D700001F000730BB1C2600AE001F080630BB1B7
:100D8000026105E001F000630BB1826000E04260A7
:100D900070470246002002EA01030BB1012000E087
:100DA0000020704770B504460D4600266069284053
:100DB000002872D0B5F5807F69D01DDC082D42D0A7
:100DC00006DC012D2DD0022D31D0042D7FD134E051
:100DD000102D3ED0202D42D0402D78D145E000008E
:100DE00003000004000300080000031000010008D5
:100DF0000001FFF77000F030B5F5004F61D009DC5D
:100E0000B5F5007F4AD0B5F5806F4DD0B5F5006FD0
:100E10005DD150E0B5F5803F2DD0B5F5003F56D1FE
:100E20002FE0A0685549FFF7B4FF064651E0E0689F
:100E30000321FFF7AEFF06464BE0E0680821FFF70D
:100E4000A8FF064645E0E0681021FFF7A2FF06462E
:100E50003FE020690321FFF79CFF064639E0206947
:100E60000821FFF796FF064633E020691021FFF7BF
:100E700090FF06462DE060680821FFF78AFF0646CE
:100E800027E060681021FFF784FF064621E0A06993
:100E90000121FFF77EFF06461BE01BE0A06902214F
:100EA000FFF777FF064614E0A0690421FFF771FF02
:100EB00006460EE00BE0A0697021FFF76AFF0646C8
:100EC00007E060680421FFF764FF064601E00026A2
:100ED00000BF00E00026304670BDB1F5007F3AD07B
:100EE0000FDC202928D006DC01291CD004291DD0C4
:100EF000082940D11DE0402921D0B1F5807F3AD1A9
:100F000026E0B1F5004F31D006DCB1F5806F25D079
:100F1000B1F5006F2FD124E0B1F5803F12D0B1F5CB
:100F2000003F28D111E0154A826025E00822C26006
:100F300022E01022C2601FE0082202611CE01022A1
:100F4000026119E00822426016E01022426013E0BC
:100F50000422426010E0042242600DE0042242605C
:100F60000AE0002282610422426005E000228261E0
:100F70000422426000E000BF00BF70470101010091
:100F8000016821F001010160002101604160816080
:100F9000C160016121214161DB49884204D13D21C9
:100FA000D94A103A91608CE0D7491831884205D16E
:100FB0004FF47461D44A103A916082E0D2493031E2
:100FC000884205D14FF47411CF4A103A916078E00D
:100FD000CD494831884205D14FF07461CA4A103A70
:100FE00091606EE0C8496031884204D1C749C64A61
:100FF000103AD16065E0C4497831884204D1C449CF
:10100000C14A103AD1605CE0BF499031884204D1B6
:10101000C049BD4A103AD16053E0BB49A83188426B
:1010200005D14FF03D51B84A103AD16049E0BA4974
:10103000884204D13D21B84A083A116041E0B649DE
:101040001831884205D14FF47461B34A083A1160EF
:1010500037E0B1493031884205D14FF47411AE4ABE
:10106000083A11602DE0AC494831884205D14FF073
:101070007461A94A083A116023E0A74960318842A7
:1010800004D1A249A44A121F11601AE0A249783182
:10109000884204D19E49A04A121F116011E09E4966
:1010A0009031884204D19B499B4A121F116008E08D
:1010B0009949A831884204D14FF03D51964A121FF8
:1010C0001160704710B500220268944B1A40CC683A
:1010D0000B6823434C6923438C692343CC69234326
:1010E0000C6A23434C6A23438C6A23434C6B23438F
:1010F0008C6B23431A430260426922F00702D1E954
:101100000B3423431A4342610B6943604B6883608D
:101110008B68C36010BD0021016041608160C160C7
:10112000016141618161C161016241628162C162AB
:10113000016341638163704721B1026842F001029B
:10114000026003E0026822F001020260704721B1F0
:10115000026842F40042026003E0026822F40042A6
:101160000260704721B1026842F02002026003E091
:10117000026822F020020260704741607047014619
:10118000486880B2704722B1036843F400230360CB
:1011900003E0036823F4002303600161704721B179
:1011A000026842F48022026003E0026822F4802296
:1011B000026070470AB1016100E0C16070470146FA
:1011C00000200A6802F400220AB1012000E0002099
:1011D0007047014600200A6802F001020AB10120AE
:1011E00000E000207047014600204A6902F0380004
:1011F000704730B503460A4600200024464DAB42F6
:1012000002D24149103901E04349103902F000553A
:101210000DB14C6800E00C68414D2C4004EA020519
:101220000DB1012000E0002030BD02463A4B9A4249
:1012300002D23548103801E03748103801F0005329
:101240001BB1374B0B40C36002E0354B0B40836052
:10125000704710B501F080034BB122B1436943F0F0
:101260008003436103E0436923F0800343618029E5
:101270000BD02AB1036801F01E042343036004E08D
:10128000036801F01E04A343036010BD70B502465D
:10129000002000240025204EB24202D21A4B103BFF
:1012A00001E01D4B103B1F4E0E4036B11E2606EAD4
:1012B000D124166806EA040502E0566906F08005A6
:1012C00001F000560EB15C6800E01C68144E34401A
:1012D00004EA010616B10DB1012000E0002070BD46
:1012E00002460D4B9A4202D20748103801E00A48E4
:1012F000103801F000531BB1094B0B40C36002E0F2
:10130000074B0B4083607047106002403D00002097
:10131000400F002000003D20106402403F801CF080
:101320007D0F7D0F3C0F3C0F10B50446984884425A
:1013300008D10121084600F086FB0021012000F0C1
:1013400082FB76E09348844208D10121022000F01C
:101350007AFB0021022000F076FB6AE08E4884428E
:1013600008D10121042000F06EFB0021042000F0D0
:101370006AFB5EE08948844208D10121082000F020
:1013800062FB0021082000F05EFB52E084488442AA
:1013900008D10121102000F056FB0021102000F0A0
:1013A00052FB46E07F48844208D10121202000F012
:1013B0004AFB0021202000F046FB3AE07A488442B4
:1013C00008D10121402000F03EFB0021402000F028
:1013D0003AFB2EE07548844208D10121802000F0BC
:1013E00032FB0021802000F02EFB22E07048844276
:1013F00008D10121801500F026FB0021A01500F086
:1014000022FB16E06B48844208D10121401500F010
:101410001AFB0021601500F016FB0AE066488442C2
:1014200007D10121001500F00EFB0021201500F06E
:101430000AFB10BDF0B50A4600210023002400BFBE
:101440003DE0012505FA01F3156805EA03049C4215
:1014500034D105684F000326BE40B54305601579B9
:101460004E00B5400668354305601579012D02D060
:101470001579022D16D185684F000326BE40B5436D
:10148000856055794E00B54086683543856045686E
:1014900001268E40B5434560456896798E40B6B2C8
:1014A00035434560C5684F000326BE40B543C5605F
:1014B000D5794E00B540C6683543C560491C102932
:1014C000BFD3F0BD4FF6FF71016000210171417182
:1014D0008171C171704708B54FF480320092009A53
:1014E0000A430092009AC261C161009AC261C26956
:1014F0000092C269009208BD0246002013690B40A9
:101500000BB1012000E0002070470146086980B25D
:1015100070470246002053690B400BB1012000E0E8
:10152000002070470146486980B2704701837047C8
:10153000418370470AB1018300E0418370474161F4
:10154000704742694A4042617047F0B50023002469
:101550004D07ED0E02FA05F3CE1000F1200555F807
:1015600026504E07F70E0F26BE40B543CF1000F1B0
:10157000200646F82750CE1000F1200555F82650D9
:1015800045EA0304CE1000F1200545F82640F0BDE1
:10159000000002400004024000080240000C02402B
:1015A000001002400014024000180240001C0240DB
:1015B000002002400024024000280240F948006850
:1015C00040F00100F74908600020F6490831086042
:1015D000F4480068F4490840F2490860F348091DDE
:1015E0000860F348EF4984310860F0481038091D5D
:1015F0000860EC48006820F48020EA490860002078
:10160000E8490C310860E7498C31086070470021D7
:10161000E44A921C117011460870704710B50146DB
:101620000022002300204A11012A02D1DD4C236848
:1016300008E0022A03D1DB4C7034236802E0D94C65
:101640007434236801F01F02012494401C400CB143
:10165000012000E0002010BD38B5002000900024DB
:10166000002500BF3120FFF7D9FF05460098401C38
:1016700000900098B0F5A04F01D0002DF2D031209D
:10168000FFF7CCFF08B1012400E00024204638BD5C
:1016900001460020C34A106820F0F80040EAC1006B
:1016A00010607047C349086070470021BD4A70321E
:1016B00011701170012802D004280AD104E0012120
:1016C000B84A7032117005E00521B64A70321170C7
:1016D00000E000BF00BF7047B7490860704770B5B1
:1016E000049C41EA82150126C6EB530645EA0645ED
:1016F000054345EA0465AB4E361D356070BDAD4906
:1017000008667047820142EA0172A64B84331A6070
:101710007047A8498866704710B5830143EA0163A2
:1017200043EA02739F4C8834236010BDA1490867C7
:101730007047A049C864704702460020994B08339F
:10174000186820F0EC6042EA01031843954B083317
:101750001860704702460020924B0833186820F04A
:10176000784042EA010318438E4B083318607047F3
:10177000014600208B4A0832106820F0030008431D
:101780001060704787480830006800F00C00704710
:1017900001460020834A0832106820F0F000084318
:1017A00010607047014600207E4A0832106820F41D
:1017B000E05008431060704701460020794A083223
:1017C000106820F4604040EAC10010607047F0B536
:1017D000002100220024022500260223714F083731
:1017E0003F6807F00C0121B1042905D0082937D141
:1017F00005E0724F076036E0714F076033E0694FD4
:101800003F1D3F68C7F38056664F3F1D3F6807F096
:101810003F036EB16A4FB7FBF3F7DFF888C10CF1F5
:10182000040CDCF800C0CCF3881C07FB0CF40CE0C3
:10183000624FB7FBF3F7DFF86CC10CF1040CDCF876
:1018400000C0CCF3881C07FB0CF4564F3F1D3F68CB
:10185000C7F301477F1C7D00B4FBF5F7076002E08A
:10186000564F076000BF00BF4E4F08373F6807F074
:10187000F0010909534F7A5C0768D7404760494F28
:1018800008373F6807F4E051890A4E4F7A5C476891
:10189000D7408760434F08373F6807F46041490BE2
:1018A000484F7A5C4768D740C760F0BD002100F41C
:1018B0004072B2F5407F0AD13A4A0832116821F4E9
:1018C000F811414A02401143364A08321160354A44
:1018D00070321268C0F30B031A43324B70331A6034
:1018E00070473549443908607047334940390860CA
:1018F000704736490860704701460020294A8C32FB
:10190000106820F01F004A1E1043264A8C321060D7
:10191000704701460020234A8C32106820F4F850AA
:101920004A1E40EA02201F4A8C321060704701466E
:1019300000201C4A8C32106820F4401008431060CC
:10194000704701460020174A8C32106820F440008E
:1019500008431060704701460020124A8C3210681C
:1019600020F4403008431060704719490860704700
:1019700039B10C4A3032126802430A4B30331A60D4
:1019800006E0084A303212688243064B30331A6050
:101990007047F9B1034A343212680243014B3433C1
:1019A0001A601CE000380240FFFFF6EA1030002405
:1019B0000030002000004742800E47420024F4001F
:1019C00000127A0014000020FFFCFF0F5C01474268
:1019D000E01147428F4A126882438E4B1A6070476B
:1019E00039B18C4A121D126802438A4B1B1D1A60C2
:1019F00006E0884A121D12688243864B1B1D1A603E
:101A0000704739B1834A0C3212680243814B0C3360
:101A10001A6006E07F4A0C32126882437D4B0C3319
:101A20001A60704739B17B4A103212680243794B11
:101A300010331A6006E0774A103212688243754B01
:101A400010331A60704739B1724A243A126802435F
:101A5000704B243B1A6006E06E4A243A12688243B7
:101A60006C4B243B1A60704739B16A4A203A1268BD
:101A70000243684B203B1A6006E0664A203A12682F
:101A80008243644B203B1A60704739B1614A1C3A6B
:101A9000126802435F4B1C3B1A6006E05D4A1C3A29
:101AA000126882435B4B1C3B1A60704739B1594A3C
:101AB000143A12680243574B143B1A6006E0554A29
:101AC000143A12688243534B143B1A60704739B181
:101AD000504A103A126802434E4B103B1A6006E01F
:101AE0004C4A103A126882434A4B103B1A607047C6
:101AF00039B1484A1C3212680243464B1C331A6003
:101B000006E0444A1C3212688243424B1C331A607E
:101B1000704739B13F4A2032126802433D4B2033AF
:101B20001A6006E03B4A203212688243394B203368
:101B30001A60704739B1374A243212680243354B74
:101B400024331A6006E0334A243212688243314B50
:101B500024331A60704739B12E4A2C32126802437E
:101B60002C4B2C331A6006E02A4A2C32126882432E
:101B7000284B2C331A60704739B1264A303212682C
:101B80000243244B30331A6006E0224A3032126896
:101B90008243204B30331A607047012808D11D4919
:101BA0003C31096841F008011A4A3C32116007E0F3
:101BB00018493C31096821F00801164A3C3211608D
:101BC000704739B1134A273A12780243114B273B29
:101BD0001A7006E00F4A273A127882430D4B273BD2
:101BE0001A7070470B484030006840F08070094917
:101BF00040310860704701460020064A283A1268C2
:101C00000A400AB1012000E000207047014926394E
:101C1000087070473438024010B50446FE488442CC
:101C200008D101210846FFF752FF00210120FFF7EC
:101C30004EFF9DE0B4F1804F08D101210846FFF727
:101C400035FF00210120FFF731FF91E0F348844286
:101C500008D101210220FFF729FF00210220FFF710
:101C600025FF85E0EE48844208D101210420FFF7DA
:101C70001DFF00210420FFF719FF79E0E9488442A5
:101C800008D101210820FFF711FF00210820FFF7EC
:101C90000DFF6DE0E448844208D101211020FFF7D8
:101CA00005FF00211020FFF701FF61E0DF488442BB
:101CB00008D101212020FFF7F9FE00212020FFF7A5
:101CC000F5FE55E0DA48844208D101210220FFF7F1
:101CD000FEFE00210220FFF7FAFE49E0D5488442CB
:101CE00009D101210804FFF7F2FE00214FF48030F2
:101CF000FFF7EDFE3CE0D048844209D101214804C1
:101D0000FFF7E5FE00214FF40030FFF7E0FE2FE083
:101D1000CA48844209D101218804FFF7D8FE002176
:101D20004FF48020FFF7D3FE22E0C548844208D15B
:101D300001214020FFF7BAFE00214020FFF7B6FE48
:101D400016E0C048844208D101218020FFF7AEFE92
:101D500000218020FFF7AAFE0AE0BB48844207D199
:101D600001218015FFF7A2FE0021A015FFF79EFEBE
:101D700010BD00220288A84B98420ED0AC4B98426E
:101D80000BD0B0F1804F08D0A44B984205D0A44BA3
:101D9000984202D0A34B984204D14FF68F731A4059
:101DA0004B881A43A04B984207D0A04B984204D0CE
:101DB0004FF6FF431A400B891A4302804B68C362F7
:101DC0000B880385944B984202D0994B984201D1DD
:101DD0008B7A03860123838270474FF0FF31416085
:101DE00000210180018141808172704701858282DA
:101DF00070470A46002101884FF68F73194011433E
:101E00000180704741627047C16270470146486A6D
:101E100070470146088D704721B1028842F00202E6
:101E2000028004E002884FF6FD731A40028070477A
:101E300021B1028842F00402028004E002884FF6D9
:101E4000FB731A400280704721B1028842F0800281
:101E5000028004E002884FF67F731A4002807047C8
:101E600002884FF6F7731A40028002880A43028004
:101E7000704702884FF6FF431A40028002880A43E7
:101E80000280704721B1028842F00102028004E022
:101E900002884FF6FE731A400280704770B5002426
:101EA00000220023058C4FF6FE7635400584028C17
:101EB0008388048B4FF68F752C40B51E2C400D88FF
:101EC0002C43751E2A408D892A434D882A43524D42
:101ED000A84202D0564DA84213D14FF6F7752A40BA
:101EE000CD892A434FF6FB752A408D882A434FF649
:101EF000FF652B404FF6FF552B400D8A2B434D8A33
:101F00002B43838004838D684563028470BD70B564
:101F1000002400220023058C4FF6EF76354005841F
:101F2000028C8388048B48F6FF752C404FF6FF45E2
:101F30002C400D884FF6FF7606EA05252C434FF618
:101F4000DF752A408D8906EA05152A434D8806EA81
:101F500005152A43304DA84202D0354DA8421DD167
:101F60004FF67F752A40CD894FF6FF7606EA0515B4
:101F70002A434FF6BF752A408D8806EA05152A4385
:101F80004FF6FF352B404FF2FF752B400D8A06EAC6
:101F900085052B434D8A06EA85052B438380048300
:101FA0008D688563028470BD70B500240022002313
:101FB000058C4FF6FF6635400584028C8388848B40
:101FC0004FF68F752C404FF6FC752C400D882C4336
:101FD0004FF6FF552A408D894FF6FF7606EA052514
:101FE0002A434D8806EA05252A430B4DA84202D014
:101FF0000F4DA84238D14FF2FF752A40CD894FF6D8
:10200000FF7606EA05252A434FF6FF352A408D88DC
:1020100006EA05252A4319E00000014000040040BB
:1020200000080040000C0040001000400014004078
:1020300000040140004001400044014000480140CC
:1020400000180040001C0040002000404EF6FF75C4
:102050002B404DF6FF752B400D8A06EA05152B43E4
:102060004D8A06EA05152B43838084838D68C563FA
:10207000028470BD70B5002200230024058C4EF64A
:10208000FF7635400584038C8488828B48F6FF7583
:102090002A404FF6FF452A400D884FF6FF7606EAA4
:1020A00005252A434DF6FF752B408D8906EA053537
:1020B0002B434D8806EA05352B43FE4DA84202D03E
:1020C000FD4DA84208D14BF6FF752C400D8A4FF606
:1020D000FF7606EA85152C43848082838D6805642B
:1020E000038470BD002101804180818081608181F5
:1020F000C18101824182704770B5034600200024EF
:102100001846183001258D40ACB21D8CA5431D84A6
:1021100009B108290AD100EB610005684FF68F76F6
:10212000354005600568154305600FE00D1FC5F3D8
:102130004E052844056848F6FF7635400560056879
:102140004FF6FF7606EA02263543056070BD41630F
:10215000704781637047C1637047016470470A46E6
:102160000021018B4FF68F73194011430183704793
:102170000A460021018B48F6FF7319404FF6FF73A2
:1021800003EA02231943018370470A460021818B29
:102190004FF68F7319401143818370470A4600211F
:1021A000818B48F6FF7319404FF6FF7303EA022351
:1021B0001943818370470A460021018B4FF6F7735C
:1021C00019401143018370470A460021018B4FF2E9
:1021D000FF7319404FF6FF7303EA0223194301838B
:1021E00070470A460021818B4FF6F773194011435F
:1021F000818370470A460021818B4FF2FF7319409B
:102200004FF6FF7303EA02231943818370470A469E
:102210000021018B4FF6FB73194011430183704776
:102220000A460021018B4FF6FF3319404FF6FF732A
:1022300003EA02231943018370470A460021818B78
:102240004FF6FB7319401143818370470A46002102
:10225000818B4FF6FF3319404FF6FF7303EA0223D9
:102260001943818370470A460021018B4FF67F7323
:1022700019401143018370470A460021018BC1F3C5
:102280000E014FF6FF7303EA0223194301837047DF
:102290000A460021818B4FF67F73194011438183D9
:1022A00070470A460021818BC1F30E014FF6FF7380
:1022B00003EA02231943818370470A460021018CF7
:1022C0004FF6FD7319401143018470470A460021FF
:1022D000018C4FF6F77319401143018470470A4689
:1022E0000021018C4FF6DF7319404FF6FF7303EAAC
:1022F00002131943018470470A460021018C4FF6EE
:102300007F7319404FF6FF7303EA021319430184E8
:1023100070470A460021018C4FF6FF5319404FF6D3
:10232000FF7303EA02231943018470470A46002120
:10233000018C4FF2FF7319404FF6FF7303EA02233B
:102340001943018470470A460021018C4DF6FF7342
:1023500019404FF6FF7303EA0233194301847047B3
:1023600030B5002301248C40A3B2048C9C43048428
:10237000048C02FA01F5ADB22C43048430BD30B5B3
:10238000002304248C40A3B2048C9C430484048C5A
:1023900002FA01F5ADB22C43048430BD828B4FF2BA
:1023A000FF331A408283828B4FF6FF7303EA0123C7
:1023B0001A4382837047F0B50C461546002100226F
:1023C0000026078C4EF6FF7C07EA0C070784818BFA
:1023D000028C4FF6FF7707EA043640F6FF47394094
:1023E0004FF6FF7707EA052739434FF6FF7707EAED
:1023F0000337394345F6FF773A4046F480573A436E
:1024000081830284F0BD828B4FF6F3731A4082837E
:10241000828B0A4382837047F0B50C461546002133
:1024200000220026078C4FF6FF6C07EA0C07078492
:10243000818B028C4FF6FF7707EA04264FF60C7764
:1024400039404FF6FF7707EA03172F4339434FF21E
:10245000FF573A4046F480773A4381830284F0BDC7
:10246000028B4FF2FF331A400283028B4FF6FF7349
:1024700003EA01231A4302837047F0B50C46154660
:10248000002100220026078C4FF6EF7C07EA0C079C
:102490000784018B028C4FF6FF7707EA041640F69B
:1024A000FF4739404FF6FF7707EA033739434FF6C6
:1024B000FF7703E0000001400004014007EA052720
:1024C00039434FF65F773A4046F010073A430183AD
:1024D0000284F0BD028B4FF6F3731A400283028B25
:1024E0000A4302837047F0B50C46154600210022CE
:1024F000068C4FF6FE773E400684018B028C4FF629
:102500000C7631407E1C06EA03162E4331434FF60B
:10251000F576324044F00106324301830284F0BD77
:1025200070B505460C46208850B92389A288618879
:102530002846FFF7D8FFE1882846FFF7CBFF25E0C4
:10254000208804280AD12389A28861882846FFF7B9
:1025500094FFE1882846FFF783FF17E020880828CA
:102560000AD12389A28861882846FFF755FFE188B0
:102570002846FFF748FF09E02389A288618828469A
:10258000FFF719FFE1882846FFF708FF70BD00211B
:1025900001804180012181800021C180018170473B
:1025A0002DE9F04105460C4600260127608808B950
:1025B000022600E00026A088012801D1022700E0C1
:1025C00001272088A0B92389A28861882846FFF7BF
:1025D0008AFFE1882846FFF77DFF23893A46314686
:1025E0002846FFF74AFFE1882846FFF739FF13E046
:1025F0002389A28861882846FFF73FFFE1882846A3
:10260000FFF72EFF23893A4631462846FFF76BFF36
:10261000E1882846FFF75EFFBDE8F0810146486B80
:1026200070470146886B70470146C86B704701468A
:10263000086C70470A884B881A438B881A43CB88EA
:102640001A430B891A434B891A438B891A43A0F802
:10265000442070470021018041808180C180018138
:1026600041818181704731B1B0F8442042F4004289
:10267000A0F8442005E0B0F84420C2F30E02A0F810
:102680004420704721B1828842F00402828004E035
:1026900082884FF6FB731A408280704721B182888E
:1026A00042F00102828004E082884FF6FE731A40F5
:1026B000828070471AB183890B43838102E083894A
:1026C0008B43838170478182704702460020138AC2
:1026D0000B400BB1012000E000207047CA4302828A
:1026E000704730B50246002000230024158A05EA11
:1026F0000103958905EA010413B10CB1012000E042
:10270000002030BDCA430282704741EA0203A0F8AC
:10271000483070471AB183890B43838102E0838973
:102720008B438381704721B1828842F00802828006
:1027300004E082884FF6F7731A408280704701895F
:102740004FF6F8721140018170470A460021018955
:102750004FF68F73194011430181704730B504461D
:102760000D4629462046FFF7F0FF208940F007007C
:10277000208130BD2DE9F04104460D4616461F4626
:10278000602D06D13B46012231462046FFF775FEFB
:1027900005E03B46012231462046FFF7A4FE2946CC
:1027A0002046FFF7D2FF208940F007002081BDE8D6
:1027B000F08130B50C4600210189C9B24FF6FF7592
:1027C00005EA0325154325432943018130BD2DE941
:1027D000F04105460E4617469846002443463A46C1
:1027E00031462846FFF7E5FF2C894FF6F870044084
:1027F00044F007044FF68F70044044F070042C81BD
:10280000BDE8F081F0B504460D4616461F463B462E
:10281000324629462046FFF7CCFF208940F480400D
:102820002081F0BD82884FF68F731A4082808288A3
:102830000A438280704702894FF6F8731A4002817A
:1028400002890A430281704702894FF67F731A405A
:10285000028102890A4302817047F0B50C46154691
:102860001E460021002200230189028B038C4FF6B3
:10287000F877394021434FF6FC473A4040F20117C0
:102880003A434FF6DD773B404FF6FF7707EA0617EE
:102890002F433B43018102830384F0BD21B1828831
:1028A00042F08002828004E082884FF67F731A40F3
:1028B00082807047A0F850107047000010B50446A1
:1028C000FA48844208D101211020FFF700F90021C5
:1028D0001020FFF7FCF857E0F548844209D10121A8
:1028E0004804FFF7E3F800214FF40030FFF7DEF86B
:1028F0004AE0F048844209D101218804FFF7D6F864
:1029000000214FF48020FFF7D1F83DE0EA488442EF
:1029100009D10121C804FFF7C9F800214FF40020B4
:10292000FFF7C4F830E0E548844209D101210805E9
:10293000FFF7BCF800214FF48010FFF7B7F823E051
:10294000DF48844208D101212020FFF7C0F8002190
:102950002020FFF7BCF817E0DA48844209D10121B2
:102960008807FFF7A3F800214FF08040FFF79EF89B
:102970000AE0D548844207D101214005FFF796F8C7
:1029800000216005FFF792F810BD2DE9FF470546CD
:102990000E460024A14600BFA046B08900B100BF8A
:1029A0002C8A24F44054F08804432C82AC8941F2F0
:1029B0000C608443B088318908437189084304431B
:1029C000AC81AC8A24F44074B0890443AC8268467C
:1029D000FEF7FDFEB548854202D0B948854202D1D6
:1029E000DDF80C9001E0DDF80890A88900F40040C3
:1029F00040B109EBC90000EB091031684900B0FB98
:102A0000F1F707E009EBC90000EB09103168890014
:102A1000B0FBF1F76420B7FBF0F00401200964215A
:102A200001FB1078A88900F4004040B1322000EB8F
:102A3000C800B0FBF1F000F00700044308E03220CA
:102A400000EB08106421B0FBF1F000F00F0004432C
:102A50002C81BDE8FF874FF4165101600021818071
:102A6000C18001810C21418100218181704710B515
:102A700002460020108A20F470600B884C882343A3
:102A80008C882343CC8823431843108210BD002137
:102A9000018041808180C180704721B1828942F4E8
:102AA0000052828104E082894DF6FF731A408281D0
:102AB0007047028B02F47F420283028B0A43028337
:102AC000704721B1828942F40042828103E0828909
:102AD000C2F30E028281704721B1828A42F4006201
:102AE000828204E0828A4FF2FF731A40828270472A
:102AF000C1F308028280704701468888C0F308004D
:102B00007047028A4FF6F0731A400282028A0A4323
:102B10000282704721B1828942F00202828104E080
:102B200082894FF6FD731A408281704782894FF285
:102B3000FF731A40828182890A4382817047028A28
:102B40004FF6DF731A400282028A0A4302827047FC
:102B500021B1028A42F48042028204E0028A4BF6EA
:102B6000FF731A4002827047818941F0010181811F
:102B7000704721B1828A42F00802828204E0828A90
:102B80004FF6F7731A4082827047028BD2B20283EB
:102B9000028B42EA01220283704721B1828A42F00D
:102BA0002002828204E0828A4FF6DF731A4082821A
:102BB000704721B1828A42F01002828204E0828A48
:102BC0004FF6EF731A4082827047828A4FF6FB738A
:102BD0001A408282828A0A438282704721B1828AA5
:102BE00042F00202828204E0828A4FF6FD731A40AC
:102BF000828270471AB1838A0B43838202E0838A00
:102C00008B4383827047F0B50346002400260025DD
:102C1000002040F66A17B94200D100BF1846C1F340
:102C2000421401F01F06012707FA06F5012C01D115
:102C30000C3004E0022C01D1103000E014301AB145
:102C400007682F43076002E00768AF430760F0BDE5
:102C500002460020B1F5007F00D100BF13880B4071
:102C60000BB1012000E00020704701F40072B2F5C2
:102C7000007F00D100BFCA430280704770B5024692
:102C8000002400230025002040F66A16B14200D13E
:102C900000BFC1F3421501F01F03012606FA03F33A
:102CA000012D13D19689334017E000000010014038
:102CB0000044004000480040004C004000500040EC
:102CC0000014014000780040007C0040022D02D139
:102CD000168A334001E0968A33400C12012606FA28
:102CE00004F41688344013B10CB1012000E0002038
:102CF00070BD10B50022002340F66A14A14200D135
:102D000000BF0A1201249440A3B2DC43048010BD2A
:102D100000B58BB001210220FEF72AFE01214806F2
:102D2000FEF76FFE09220821D348FEF70EFC0922A8
:102D30001146D148FEF709FC4FF440700290022082
:102D40008DF80C008DF80D0000208DF80E0001208C
:102D50008DF80F0002A9C848FEF76CFB14208DF80F
:102D6000040002208DF805008DF8060001208DF882
:102D7000070001A8FDF7A1FB15208DF80400002035
:102D80008DF8050001208DF806008DF8070001A8D8
:102D9000FDF793FBB948FDF7FBFB08A8FDF71CFD09
:102DA00000208DF8260001208DF827008DF82800DE
:102DB0008DF8290000208DF82A0001208DF82B00C5
:102DC00000208DF822008DF8230008208DF82400C3
:102DD00003208DF82500ADF8200008A9A748FDF7CD
:102DE000F0FB00208DF81A008DF81B0001208DF8F3
:102DF0001C000020ADF81000ADF81200ADF8140072
:102E0000ADF81600ADF8180001208DF81D0004A8DB
:102E1000FDF761FC01208DF81A008DF81B008DF87C
:102E20001C004003ADF810000020ADF8120044F281
:102E3000A000ADF814000020ADF816000120ADF898
:102E400018008DF81D0004A8FDF745FC01220221A1
:102E50008A48FDF73FFF012210218848FDF73AFF1D
:102E6000012211468548FDF735FF0BB000BD10B5B6
:102E700086B0044600208DF80C008DF80D00082067
:102E80008DF80E0040F2FF10019014F5FA5F01DC9E
:102E90007B4806E0B4F5FA5F02DB4FF4FA5000E03D
:102EA00020460446200A8DF80F008DF8104001A935
:102EB0007248FDF7FFFC06B010BDF0B585B00446C2
:102EC0000D4616461F464FF40070009000208DF806
:102ED00009008DF8080008208DF80A0014F57A5FC3
:102EE00001DC684806E0B4F57A5F02DB4FF47A5003
:102EF00000E02046044615F57A5F01DC614806E0F3
:102F0000B5F57A5F02DB4FF47A5000E028460546BB
:102F100016F57A5F01DC5B4806E0B6F57A5F02DB06
:102F20004FF47A5000E03046064617F57A5F01DC30
:102F3000544806E0B7F57A5F02DB4FF47A5000E0C0
:102F400038460746200A8DF80B00E1B28DF80C10C8
:102F5000290A8DF80D10E9B28DF80E10310A8DF89E
:102F60000F10F1B28DF81010390A8DF81110F9B266
:102F70008DF8121069464148FDF79CFC05B0F0BD84
:102F80000FB40098A0F2012010B1012826D112E060
:102F90009DF80C009DF80B1040EA012001B23A4860
:102FA00001819DF80E109DF80D0041EA002001B24C
:102FB0003548418112E09DF80C009DF80B1040EA65
:102FC000012000B2304948809DF80E109DF80D0098
:102FD00041EA002000B22C49888000BF00BF04B045
:102FE000704700B587B002212448FDF7DBFE70B1C1
:102FF00002212248FDF771FF02AA00211F48FDF7B8
:103000004EFD0698009002A80FC8FFF7B9FF07B061
:1030100000BD0FB40098A0F2052090B99DF80C00F7
:103020009DF80B1040EA012000B2184988849DF8F1
:103030000E109DF80D0041EA002001B21348C18432
:1030400000BF00BF04B0704700B587B010210B4827
:10305000FDF7A8FE70B110210848FDF73EFF02AA57
:1030600001210648FDF71BFD0698009002A80FC835
:10307000FFF7CFFF07B000BD00040240006400402E
:10308000C0E0FFFF80C1FFFFE000002048040020F7
:1030900030B5034613B94FF6FF7030BD09E013F8A1
:1030A000014B82EA0400C0B23B4D35F8100080EAC3
:1030B0002222081EA1F10101F1D11046EDE770B501
:1030C00005460C4600260DB1022C01D8002070BD2B
:1030D000A11E324802882846FFF7DAFF0646F1B201
:1030E000A01E285C814206D1601E285CB0EB162F22
:1030F00001D10120EBE70020E9E770B505460C4659
:1031000000260DB1022C00D870BDA11E23480288F4
:103110002846FFF7BDFF0646A01E2E54310A601E4A
:10312000295400BFF0E730B5034605E013F8010B62
:1031300080EA02041A48025D081EA1F10101F5D1DE
:10314000104630BD70B505460C4600260DB1022C68
:1031500001D8002070BD611EFF222846FFF7E3FF63
:103160000646601E285CB04201D10120F2E7002033
:10317000F0E770B505460C4600260DB1022C00D8CC
:1031800070BD611EFF222846FFF7CDFF0646601E78
:103190002E5400BFF4E70000E25300082400002092
:1031A000E355000800B59BB001210420FEF7E0FBC9
:1031B00001210220FEF736FC01218805FEF7D8FB2D
:1031C0004FF44070199002208DF8680000208DF8AF
:1031D0006A0003208DF8690019A9FD48FEF72AF955
:1031E00003220821FA48FEF7B0F903220921F84822
:1031F000FEF7ABF90720ADF858000020ADF85A00F3
:10320000222017900020ADF8600016A9F148FEF7C3
:10321000B0FD6020ADF844000120ADF846000C2060
:1032200013904FF48070ADF854000020ADF85000BA
:1032300011A9E848FEF7B8FE0121E648FEF7D1FFE4
:1032400011A9E448FEF716FF0121E248FEF7D2FF7C
:10325000E148FDF795FE4FF060600290DD484C308C
:103260000390DE4804904020059020200690002026
:1032700007904FF480600890800009900A90001138
:103280000B904FF440300C9004200D9003200E90D2
:1032900000200F90109002A9CF48FDF713FF3920AE
:1032A0008DF8040002208DF805008DF8060001203D
:1032B0008DF8070001A8FDF700F94FF480720F2187
:1032C000C448FFF722FA01221102C248FFF722FA8E
:1032D0000121C048FEF7D6FD0121BE48FFF7C3F922
:1032E00001221021BC48FDF7B4FF0121BA48FDF7C7
:1032F00023FF1BB000BD10B5B949B748FDF779FFF2
:10330000012826D100220102B248FFF703FA002269
:103310001021B148FDF79DFF0021AF48FDF70CFFDC
:103320000021AC48FEF717FF0021AA48FEF715FF61
:103330000121AC48FEF7A6FD0121AA48FFF7CEF90E
:1033400001221146A748FFF7B5F9A549A248FDF7A4
:10335000C7FF10BD002801DC002106E0B0F5006FBA
:1033600002DB4FF4006100E001469F4A1180704784
:1033700008B59E48B0F90000B0F57A7F1CDD9C4886
:10338000408840F2DC51884207DD9A48008800F509
:103390007A7000B2974908800BE095484088B0F5F4
:1033A000FA7F06DA93480088A0F57A7000B2914956
:1033B000088000208D4908808E48B0F90000002860
:1033C00001DC00200BE08B48B0F90000B0F57A5F1B
:1033D00002DB4FF47A5002E08648B0F900008549DC
:1033E000088082480088401C00B2804908808148DB
:1033F000B0F9000000EE100AB8EEC00A7E4880ED79
:10340000000A7C48B0F90000404200EE100AB8EE15
:10341000C00A794880ED0B0A7848B0F9040000EE44
:10342000900AF8EEE00AB0EE600A734800F042F944
:10343000DFED730AB4EEE00AF1EE10FA02D89FED68
:10344000700A21E06D48B0F9040000EE900AF8EE31
:10345000E00AB0EE600A684800F02CF9DFED690A76
:10346000B4EEE00AF1EE10FA02DB9FED660A0BE023
:103470006248B0F9040000EE900AF8EEE00AB0EEFF
:10348000600A5D4800F016F9BDEEC00A10EE100AA1
:1034900000B2ADF800005948B0F90A0000EE900AF9
:1034A000F8EEE00AB0EE600A53482C3000F002F962
:1034B000DFED530AB4EEE00AF1EE10FA02D89FED08
:1034C000500A23E04D48B0F90A0000EE900AF8EEE9
:1034D000E00AB0EE600A48482C3000F0EBF8DFED6F
:1034E000490AB4EEE00AF1EE10FA02DB9FED450A5C
:1034F0000CE04248B0F90A0000EE900AF8EEE00A4B
:10350000B0EE600A3C482C3000F0D4F8BDEEC00AA2
:1035100010EE100A00B2ADF80200BDF90010BDF9BE
:10352000020000231A46FFF7C8FC08BD00B5364864
:10353000B0F90000B0F57A7F1ADD2D48408840F2DE
:10354000DC51884206DD31480088643000B22F49E2
:1035500008800AE026484088B0F5FA7F05DA2B4853
:103560000088643800B22949088000202649088074
:103570002648B0F90000002801DC00200BE02348B9
:10358000B0F90000B0F5FA6F02DB4FF4FA6002E028
:103590001E48B0F900001D4908801B480088401CE7
:1035A00000B2194908801948B0F90000FFF7D2FEAF
:1035B00000BD10B50E480089012829D100200D4911
:1035C0000880FFF7B3FF0020FFF751FC2CE000005C
:1035D0000008024000040140286402402800002046
:1035E0000088001000080040B0000020AE0000205D
:1035F000CC010020AC000020EC000020E000002006
:1036000000007AC600007A46AA000020A800002028
:1036100023480089022807D1002022490880FFF7AB
:10362000A7FE0020FFF796FE1D484089012804D11F
:1036300040211D48FDF77AFF07E01948408902281C
:1036400003D140211848FDF773FF10BD9FED170A05
:10365000174880ED000AB3EE090A80ED010A9FEDDC
:10366000130A80ED020A9FED110A80ED030A9FED17
:103670000F0A80ED070A9FED0D0A80ED0B0AB3EEED
:10368000090A80ED0C0A9FED090A80ED0D0A9FEDF5
:10369000070A80ED0E0A9FED050A80ED120A7047B9
:1036A000CC010020A8000020000002400000000023
:1036B000EC000020B0EE401A90ED000A30EE410A16
:1036C000F0EE400A90ED060A30EE200A80ED060A80
:1036D00090ED040A30EEC00AF0EE401A90ED040AB4
:1036E00080ED050AC0ED040A90ED060A90ED072A68
:1036F000B4EEC20AF1EE10FA04DB90ED070A80ED99
:10370000060A10E090ED060A90ED072AB1EE422A73
:10371000B4EEC20AF1EE10FA05D890ED070AB1EE48
:10372000400A80ED060A90ED010A20EE200A80EDA5
:10373000080A90ED020A90ED062A20EE020A80EDBA
:10374000090A90ED030A20EE210A80ED0A0A90EDA5
:10375000080A90ED092A30EE020A90ED0A2A30EEAE
:10376000020A70471FB501210420FEF74AF9032021
:10377000ADF800000020ADF80200292001900020E3
:10378000ADF8080069467048FEF7F3FA1E208DF880
:103790000C0001208DF80D0003208DF80E00012093
:1037A0008DF80F0003A8FCF788FE01216648FEF79C
:1037B00095FF012211466448FEF77CFF1FBD10B53E
:1037C00001216148FEF78DFF00287CD000215E4872
:1037D000FEF758FB002201215B48FEF76BFF5B48B8
:1037E0000088002801DC002009E058480088B0F576
:1037F000FA6F02DB4FF4FA6001E054480088534945
:10380000088008460088C0F38020514908704F485E
:103810000088C0F3402048704C480088C0F3002066
:1038200088704A480078C0F3C010C87047480078D4
:10383000C0F38010087145480078C0F3401048710B
:1038400042480078C0F30010887140480078C0F307
:10385000C000C8713D480078C0F3800008723B4842
:103860000078C0F3400048723848007800F001004A
:1038700088720020C87208460078097948403449A7
:10388000097A4840324908730846407849794840E7
:103890002F49497A48402E494873084680788979EB
:1038A00048402B49897A4840294988730846C0789E
:1038B000C97948402649C97A48402549C87300203B
:1038C0002449086024E03DE0214822490968405C21
:1038D000012801D1172000E00C201E490968490089
:1038E0001D4A42F821001A481A490968405C01281B
:1038F00001D1172100E00C21164800684000401C4F
:10390000154A42F8201013480068401C114908600D
:10391000104800681028D7DB10491148FDF785FCD6
:10392000012211020F48FEF7F5FE012210210C487A
:10393000FDF78FFC01210A48FDF7FEFB012102483B
:10394000FEF7E0FE10BD000000080040B0000020BF
:1039500044010020B40000202800002000080010CE
:10396000286402400004014000B597B001210846D8
:10397000FDF7FEFF01211020FEF754F807220A216F
:10398000FE48FDF7E2FD4FF48060119002208DF8B3
:10399000480000208DF84A0003208DF849000020DF
:1039A0008DF84B0011A9F548FDF744FDF44813903C
:1039B0000020ADF85000ADF852004FF48060ADF833
:1039C00054000420ADF856000020ADF8580013A9AB
:1039D000EC48FEF7DAFF012240F22441E948FFF704
:1039E00012F90121E748FFF758F801224021E54884
:1039F000FFF700F925208DF8400001208DF84100E7
:103A000002208DF8420001208DF8430010A8FCF739
:103A100054FD01218805FDF7ABFFDB48FDF7B0FA47
:103A20004FF000600190D748001D0290D7480390E6
:103A3000002004901E200590002006904FF4806026
:103A400007900020089009904FF480700A904FF47E
:103A500040300B9000200C900D900E900F9001A91B
:103A6000C948FDF72FFB01221021C748FDF7F1FBE4
:103A70000121C548FDF760FB01210420FDF778FF17
:103A80000121C804FDF7BDFF08220A21C048FDF747
:103A90005CFD08220B21BE48FDF757FD4FF4806006
:103AA000119002208DF8480000208DF84A00032074
:103AB0008DF8490000208DF84B0011A9B448FDF79E
:103AC000B9FC4FF40060119002208DF848000020EE
:103AD0008DF84A0003208DF8490000208DF84B0036
:103AE00011A9AB48FDF7A6FC4FF4E130139000207C
:103AF000ADF85000ADF85200ADF854000C20ADF810
:103B000056000020ADF8580013A9A248FEF73DFF6B
:103B10000121A048FEF7C1FF01210420FDF728FF85
:103B200001212020FDF77EFF082206219848FDF79D
:103B30000CFD082207219648FDF707FDC0201190D3
:103B400002208DF8480000208DF84A0003208DF8EF
:103B5000490000208DF84B0011A98D48FDF76AFC43
:103B60004FF4E13013900020ADF85000ADF8520052
:103B7000ADF854000C20ADF856000020ADF8580008
:103B800013A98548FEF701FF01218348FEF785FF51
:103B9000012240218048FFF72DF8012280217E4834
:103BA000FFF728F83A208DF8400001208DF84100F9
:103BB0008DF842008DF8430010A8FCF77EFC01212F
:103BC0008805FDF7D5FE70484838FDF7D9F94FF064
:103BD000206001907048001D029070480390002002
:103BE000049018200590002006904FF48060079004
:103BF0000020089009904FF480700A904FF44030F4
:103C00000B9000200C900D900E900F9001A95E4833
:103C10004838FDF757FA012210215B484838FDF774
:103C200018FB012158484838FDF786FA17B000BD47
:103C300070B504460D46E1B25748FEF759FF00BF84
:103C400080215548FFF704F80028F9D0204670BDC0
:103C500010B5044600BF80214F48FEF7F9FF002849
:103C6000F9D04D48FEF748FF10BD0178427841EA8F
:103C70000221C1F30A014A4A11804178C9108278B1
:103C800041EA4211C1F30A01454A51808178891104
:103C9000C27841EA8201027941EA8221C1F30A0134
:103CA0003F4A918001794910427941EAC211C1F33A
:103CB0000A013B4AD1804179C1F301111181417957
:103CC000890951818179C27941EA022109B2344AD4
:103CD0009181017A427A41EA02210AB23049CA81CD
:103CE000817AC27A41EA02210AB22D490A82027B14
:103CF0008A74427BCA74817B01F00101284A918257
:103D0000817BC1F340022649CA82817BC1F38002D4
:103D100023490A83817BC1F3C00221494A83817B05
:103D2000C1F300121E490A86817BC1F340121C496F
:103D30004A86817BC1F3801219498A83817BCA0933
:103D40001749CA83C17B01F0010215490A84C17B6E
:103D5000C1F3400212494A84C17BC1F38002104979
:103D60008A84C17BC1F3C0020D49CA84C17BC1F3FF
:103D700000120B490A85C17B14E0000000000240DC
:103D8000A086010000100140886402405401002018
:103D900000080240004C0040001401406601002071
:103DA000CC010020C1F34012BB494A85C17BC1F35D
:103DB0008012B9498A85C17BCA09B749CA850121E0
:103DC000B54A82F83410002182F83510114609886E
:103DD000A1F580610F2909DA11460988A1F58061F2
:103DE00011F10F0F02DD4FF480611180AA4949885B
:103DF000A1F580610F290ADAA7494988A1F58061F8
:103E000011F10F0F03DD4FF48061A34A5180A249E5
:103E10008988A1F580610A290ADA9F498988A1F574
:103E2000806111F10A0F03DD4FF480619A4A91809D
:103E30009949C988A1F580610A290ADA9649C98891
:103E4000A1F5806111F10A0F03DD4FF48061924A00
:103E5000D180704710B540F224419048FEF70EFF24
:103E6000E8B18E4800888D48808800218C48FDF795
:103E700063F98B48FDF783F9C0F11E00894908609A
:103E800008460068122802D18748FFF7EEFE1E217F
:103E90008348FDF772F901218148FDF74DF910BD06
:103EA0004FF480607C49088048808880C88000206A
:103EB000888100217848C18101828174C174002009
:103EC0007549888200217448C182018341838183BE
:103ED000C183018441840186418602206E490881A4
:103EE00048817047F0B52DED028B83B007460D4633
:103EF000182239466D4800F017FB0024A8E06B48F3
:103F00001838005DA5287DD16849183908190521A0
:103F1000FFF718F90128F6D164491839A01D0E5C85
:103F2000601D085C40EA0626A01C0D5C601C085C55
:103F300040EA052540F20120864219D1081905F111
:103F40000901FFF7BCF898B15849183904F1080085
:103F5000085C574908725549183904F10900095C91
:103F6000524A183A401C105C41EA002050498881AE
:103F700040F20720864234D14C491839081905F11E
:103F80000901FFF79CF860B348491839E01D085C47
:103F9000012826D104F10800085C454948724349CC
:103FA000183904F109000144414809688161414818
:103FB0000068401C3F4908603D4890ED060A10EE3D
:103FC000101A084600F053FB41EC180B3948016801
:103FD0003748407A53EC182BCDE9000136A000F0A9
:103FE00087FD40F20220864230D130491839081945
:103FF00005F10901FFF763F820B12C491839E01DDC
:10400000014400E022E02A48098801842749183940
:1040100004F10900014426480988418423491839DC
:1040200004F10B0001442248096841621F49183914
:1040300004F10F0001441E48098801851B49183905
:1040400004F1110001441A480988C182601C04B2BD
:10405000182CFFF654AF18221449A1F1180000F0F3
:1040600063FA03B0BDEC028BF0BD10B51B490C48E0
:104070004838FDF70BF918B100211948FFF732FF56
:104080004FF0815106484838FDF7CFF813490448EE
:104090004838FDF725F910BDCC0100200010014083
:1040A00088640240BC000020540100201A02002055
:1040B00094010020B800002025666D2F7320202079
:1040C00020256420B7A22F73202020B5DA20256494
:1040D00020B7A2202020200A00000000008020102D
:1040E0006601002010B52DED068BB0EE408AB5EECE
:1040F000C08AF1EE10FA02DDB0EE480A01E0B1EE3E
:10410000480ADFEDAD0AB4EEE00AF1EE10FA65DD23
:10411000AA48B0F92600002803DDA848B0F9260017
:1041200003E0A648B0F926004042002856D1A44832
:104130000088401C00B2A2490880B5EEC08AF1EEAA
:1041400010FA02DDB0EE480A01E0B1EE480ADFEDF8
:104150009A0AB4EEE00AF1EE10FA4CDD9748B0F995
:104160002600002803DD9548B0F9260003E09348B7
:10417000B0F92600404280BB9148B0F900003228D7
:1041800039DD8E4890ED080A10EE101A084600F04E
:104190006EFA41EC1A0B9FED8B0B53EC102B00F0D9
:1041A000D5F941EC190B00F043FA00B287490880B9
:1041B0008248D0ED0A0A0846B0F9000000EE100A65
:1041C000B8EEC00A30EE800A7C4880ED0A0A002072
:1041D0007B49088046207E4908800CE0774890EDB6
:1041E000080ABDEEC00A10EE100A00B27749088036
:1041F0000020734908807648B0F90000002812DDDD
:104200006E4890ED080AF2EE000A80EE201A90ED5A
:104210000A0A30EE410A80ED0A0A6D480088401E05
:1042200000B26B490880BDEC068B10BD70B52DED5A
:10423000028B04460D46674890ED000AFFF752FFD7
:1042400064B15E48D0ED0A0A90ED011A00EE104A02
:10425000B8EEC00A40EE010AC0ED0A0A55B157484F
:10426000D0ED0A0A00EE105AB8EEC00A30EE800A0D
:1042700080ED0A0A5148B0F9240000EE900AF8EEE9
:10428000E00AB0EE600A4D4800F0BAF8B0EE408A9D
:104290004A482830FFF70EFA484880ED150AB0F971
:1042A000260000EE900AF8EEE00AB0EE600A4348FD
:1042B0005430FFF7FFF9474880ED000A90ED000AFF
:1042C000DFED450AB4EEE00AF1EE10FA02D89FEDF8
:1042D000420A0FE03F4890ED000ADFED400AB4EEDD
:1042E000E00AF1EE10FA02DB9FED3C0A02E03948E9
:1042F00090ED000ABDEEC00A10EE100A00B200EE0A
:10430000100AB8EEC00A334880ED000A90ED000AAA
:10431000BDEC028B70BD00EE100AB8EEC00A274952
:1043200081ED080A9FED2E0A81ED000A9FED2C0A0F
:1043300081ED020A0021214A91819FED290A11464F
:1043400081ED060A9FED260A81ED040A9FED240AFD
:1043500081ED050A9FED220A81ED070A9FED210AF2
:1043600081ED010AB2EE000A81ED0B0A9FED1E0AF3
:1043700081ED0C0AB7EE080A81ED0D0A9FED1B0ACC
:1043800081ED110A9FED1A0A81ED0A0A9FED160AC6
:1043900081ED160A9FED170A81ED170A9FED100AAD
:1043A00081ED180A9FED140A81ED1C0A9FED130A96
:1043B00081ED150A7047000000002F4448040020DA
:1043C000C4000020333333333333D3BFC80000205D
:1043D000C6000020C000002000C0DAC500C0DA45D9
:1043E0000000000000F0FF45CDCC4C3E0080BB44F7
:1043F0000000C843CDCC4C3D0000FA430070144788
:10440000F0EE400AC0ED040A818939B990ED040A42
:1044100080ED020A8189491C09B2818190ED040A6C
:1044200090ED051A30EE410A80ED060A90ED040A7F
:1044300080ED050A90ED060A90ED011AFEEE001AD5
:1044400021EE211AB4EEC10AF1EE10FA0FD290ED6E
:10445000010A90ED061A30EE010A80ED060A90ED91
:10446000000AB7EE001A30EE010A80ED000A90ED66
:10447000060A90ED011AF6EE001A21EE211AB4EEAA
:10448000C10AF1EE10FA0FDD90ED060A90ED011A67
:1044900030EE410A80ED060A90ED000AB7EE001AF0
:1044A00030EE410A80ED000A90ED040A90ED001A0A
:1044B000D0ED011A01EE210A90ED021A30EE410A08
:1044C00080ED070A90ED070A704700001CB5012136
:1044D0000846FDF74DFAC020009001208DF8040039
:1044E00000208DF8060003208DF8050069460C4871
:1044F000FCF7A0FF01210420FDF73AFA44F2300056
:10450000009001208DF8040000208DF806000320A3
:104510008DF8050069460348FCF78CFF1CBD0000C0
:10452000000002400008024040EA01039B0703D05C
:1045300009E008C9121F08C0042AFAD203E011F8E2
:10454000013B00F8013B521EF9D270472DE9FE4FA6
:1045500081EA030404F0004421F0004100944FF08C
:10456000000B23F0004350EA01045ED052EA03043A
:104570005BD0C3F30A54C1F30A552C44A4F2F334BC
:104580000194A0FB0254C1F3130141F48011C3F361
:10459000130343F4801301FB024400FB034E840A1F
:1045A000970A44EA815447EA8357A4FB07680295B7
:1045B0008D0A05FB07854FEA932C04FB0C54270555
:1045C000029D4FEA065847EA1637B5EB08056EEB31
:1045D000070C870E920E47EA811742EA8312A7FB67
:1045E0000201B6EB0B0164EB00042B0D43EA0C3324
:1045F0005E1844EB1C50DA465146E7FB0201C5F356
:1046000013044FEA0B3343EA14534FEA0432019C7C
:1046100043EA0603A4F10C040294009CCDE900B423
:1046200000F09EF803B0BDE8F08F00200146F9E7E6
:1046300070B5C1F30A5201F000450024C1F3130123
:1046400040F2FF3341F480119A4201DA002070BD3C
:1046500040F233439A42A2F2334203DC524200F06A
:1046600060F800E090402C43F1D0404270BD00F073
:10467000004230F000400AD0C10D01F56071C0F376
:10468000160042EA0151C20840071143704700205A
:104690000146704730B50B46014600202022012418
:1046A00009E021FA02F59D4205D303FA02F5491B00
:1046B00004FA02F52844151EA2F10102F1DC30BD16
:1046C0002DE9F05F0546002092469B468846064647
:1046D000814640241BE0284641464746224600F0DA
:1046E00020F853465A46C01A914110D31146184635
:1046F000224600F0DBF92D1A67EB01084F462246EF
:104700000120002100F0D2F917EB00094E41201ED4
:10471000A4F10104DFDC484631462A464346BDE8A1
:10472000F09F202A04DB203A21FA02F00021704792
:1047300021FA02F3D040C2F1200291400843194609
:10474000704710B5141E73F1000408DA401C41F1E3
:10475000000192185B411A4301D120F0010010BD05
:104760002DE9F04D92469B4611B1B1FA81F202E07B
:10477000B0FA80F22032904600F098F904460F46D5
:1047800040EA0A0041EA0B0153465A46084313D057
:10479000114653EA010019D0C8F140025046FFF714
:1047A000C0FF05460E4650465946424600F07EF987
:1047B000084305D0012004E020463946BDE8F08DCD
:1047C0000020054346EAE0762C4337430A98630508
:1047D000E40AA0EB08000022FD0A44EA47540A302C
:1047E00002D500200146E9E7010510196941DDE91C
:1047F000084500196941BDE8F04DA2E72DE9FE4FDB
:10480000804681EA0300C00F0C46009021F0004171
:1048100023F00045B8EB0200A94105D240462146ED
:1048200090461C460B46024623F00040104347D0FA
:10483000270DC7F30A00C3F30A510290401A0190F2
:1048400040286BDAC3F3130040F4801B00989246B3
:1048500020B10023D2EB030A63EB0B0B01985946FE
:10486000C0F14002504600F021F906460D46504680
:104870005946019A00F029F910EB08006141002423
:1048800087EA115284EAE7731A4340D0009A62B370
:10489000019A012A4FEA075215DC001B61EB020165
:1048A0004FF0004202EA0752CDE90042001C41F5F8
:1048B000801132462B46FFF753FF03B0BDE8F08F5F
:1048C00040462146F9E7001B61EB0201001C41F55F
:1048D000801300185B412018A2F5001747EB030175
:1048E00040EAD570B6196D4111E06D084FEA360601
:1048F00045EAC0754FEA0752001B61EB0201001C3C
:1049000041F5801149084FEA300000195141324603
:104910002B4603B0BDE8F04FFFF713BF009801220C
:1049200040000023D0EB020263EBE07300982146C5
:104930004FEAE074B8EB000061EB0401E9E783F0B3
:1049400000435BE781F0004158E72DE9F04D81EA33
:10495000030404F0004B21F0004514464FF0000A18
:1049600023F0004150EA050220D054EA01021DD094
:10497000C5F30A570246C5F31303C1F31300C1F38D
:104980000A5640F4801543F48013A7EB0608101B69
:10499000D64608F2FD3873EB050002D308F1010892
:1049A00001E092185B41B8F1000F03DA00200146E4
:1049B000BDE8F08D00204FF48011064684460EE0DD
:1049C000171B73EB050705D3121B63EB05030643A7
:1049D0004CEA010C49084FEA300092185B4150EA5A
:1049E0000107EDD152EA030012D082EA040083EA03
:1049F0000501084305D0101BAB4106D2012200235C
:104A000006E000224FF0004302E06FF00102531075
:104A10001AEB06004CEB085110EB0A0041EB0B01BE
:104A2000BDE8F04DFFF78DBEC1F30A52C1F313018B
:104A300040F2FF3341F480119A4202DA002001462D
:104A4000704740F233439A42A2F2334202DC5242B0
:104A5000FFF767BE00F02AB830B5041E71F10004FC
:104A600004DB4FF00044404264EB0101141E73F17B
:104A7000000405DB1C464FF00043524263EB040385
:104A8000994208BF904230BD064C074D06E0E068F1
:104A900040F0010394E8070098471034AC42F6D385
:104AA000FBF776FBE456000804570008202A04DBD5
:104AB000203A00FA02F1002070479140C2F1200331
:104AC00020FA03F3194390407047202A06DBCB17E6
:104AD000203A41FA02F043EAE07306E041FA02F3B9
:104AE000D040C2F1200291400843194670470000AF
:104AF0000FB4054B10B503A9044A029800F0DAF888
:104B000010BC5DF814FB0000313C0008CC00002014
:104B100002E008C8121F08C1002AFAD17047704786
:104B2000002001E001C1121F002AFBD170470000E4
:104B30002DE9FF5F82B00021DDE90430020DDDF8D0
:104B400040B0034318D044F61050A2F2FF32424363
:104B50001514119801281FD0A5EB0B00401C5FEA2B
:104B6000000A4FF000064E4FDFF83891B04650462D
:104B700015D5CAF1000413E0119801244AA30128B5
:104B800001D16FEA0B010298119AC0E90031C0E926
:104B9000024206B0BDE8F09FCBF10000DFE704461B
:104BA0000021404A491842EB0450CDE9001012E0C0
:104BB000E00707D032463B4640464946FFF7C6FC71
:104BC0008046894632463B4610461946FFF7BEFCF2
:104BD00006460F466410002CEAD1DDE90401DDE948
:104BE0000023BAF1000F06DAFFF7B0FC42464B464D
:104BF000FFF7ACFC05E0FFF7A8FE42464B46FFF787
:104C0000A4FE04460E460022284BFFF725FF03D8DA
:104C10004FF0FF30014607E00022254B2046314689
:104C2000FFF7ECFDFFF700FF102409E0002C0ADB82
:104C30000A220023FFF744FD039B30321A55641EFD
:104C400050EA0102F2D1641C039AC4F11103144426
:104C5000119A012A03D0012208430DD10AE008432A
:104C600004D000204FF0110B119072E7A3EB0B055D
:104C70006D1E0DE05B4504DD4FF0000205F10105FE
:104C800004E003DA4FF00002A5F10105002AECD0A0
:104C900002981199C0E90231C0E9004579E70000A6
:104CA000000014400000F03F300000000000F0431E
:104CB0000000E03F2DE9FF4F95B09B468946064630
:104CC00000250FE2252877D100242746F84A012144
:104CD000059400E0044316F8013F203B01FA03F07D
:104CE0001042F7D130782A2811D06FF02F03307896
:104CF000A0F13002092A16D8059A44F0020402EB0A
:104D0000820203EB42021044761C0590EFE759F84B
:104D1000042B0592002A03DA504244F40054059013
:104D200044F00204761C30782E2816D116F8010FB4
:104D300044F004042A280DD06FF02F023078A0F13F
:104D40003003092B09D807EB870302EB4303C7188D
:104D5000761CF3E759F8047B761C30786C280FD06A
:104D600006DC4C2817D068280DD06A2814D104E03E
:104D7000742810D07A280FD10DE044F400140AE012
:104D800044F4801401E044F440147278824202D169
:104D900004F58014761C761C307866280BD013DC62
:104DA000582877D009DC002875D04528F6D0462849
:104DB000F4D047281AD19DE118E0632835D0642843
:104DC00079D0652812D195E1702873D008DC672866
:104DD000F1D069286FD06E280DD06F2806D1B5E0CC
:104DE00073282CD0752875D0782874D05A46179916
:104DF00090476D1C75E1C4F30250022809D00328C6
:104E00000DD0D9F8001004280DD00D6009F1040967
:104E100067E1D9F80010EA17C1E90052F6E7D9F8BE
:104E200000100D80F2E70D70F0E719F8041B8DF803
:104E3000001000208DF80100EA46012003E059F837
:104E400004AB4FF0FF3061074FF0000102D40DE0DA
:104E500008F101018846B9420FDA8045F8DB1AF8FB
:104E600008100029F4D108E008F1010188468142C8
:104E7000FADB1AF808100029F6D105985B46A0EB7A
:104E8000080721463846179A00F094FA284400EBA8
:104E9000080507E04DE029E10DE01AF8010B5A463C
:104EA00017999047B8F10108F7D25B46214638467A
:104EB000179A13E142E00A220092C4F302524FF023
:104EC000000A022A08D059F804CB032A4FEAEC71F1
:104ED0000AD00DE029E02AE009F1070121F00702DC
:104EE000F2E802C1914609E00FFA8CFC4FEAEC713E
:104EF000042A03D14FFA8CFC4FEAEC71002907DA3F
:104F00000A460021DCF1000C61EB02012D2202E0D7
:104F1000220504D52B228DF80420012203E0E207AC
:104F200001D02022F7E7904659E00A2102E0102242
:104F30000DE010214FF0000A00910BE010224FF01D
:104F4000000A44F004040827009203E008224FF00E
:104F5000000A0092C4F30252022A05D059F804CB89
:104F60000021032A08D009E009F1070121F0070216
:104F7000F2E802C1914605E01FFA8CFC042A01D137
:104F80000CF0FF0C4FF00008220728D5702806D03F
:104F9000009B83F0100353EA0A0305D00EE0402281
:104FA0008DF80420012208E05CEA010206D03022DC
:104FB0008DF804208DF8050002229046009B83F0B6
:104FC000080353EA0A030AD15CEA010201D162072D
:104FD00005D530228DF804204FF001087F1E582897
:104FE00004D034A003900EA802900DE036A0F9E79B
:104FF00053466046009AFFF763FB84460398825C41
:105000000298401E029002705CEA0100F0D1029802
:1050100006A9081A00F1200A600702D524F480349A
:1050200000E00127574502DDA7EB0A0000E0002061
:1050300000EB0A01009005984144401A0590E003F6
:1050400006D45B462146179A059800F0B3F905444B
:10505000002706E001A85A46C05D179990476D1CCD
:105060007F1C4745F6DBE0030CD55B462146179ACB
:10507000059800F09FF9054404E030205A4617993E
:1050800090476D1C0099481E00900029F5DC08E04F
:10509000029802995A460078491C02911799904744
:1050A0006D1CBAF10001AAF1010AF1DC65E1000012
:1050B00009280100303132333435363738396162EE
:1050C00063646566000000003031323334353637B2
:1050D00038394142434445460000000000F058F989
:1050E0000544761C307800287FF4ECAD19B02846D2
:1050F000BDE8F08F620700D4062709F1070222F00D
:10510000070CFCE80223E14603F000485FEA080CC4
:1051100002D00FF2702C0DE05FEA045C02D50FF2B2
:10512000682C07E05FEAC47C02D00FF2602C01E03B
:10513000AFF2700C4FF0FF3823F00043CDF850C0B1
:1051400065280CD006DC452809D046281DD0472804
:105150003DD13DE0662818D067287ED138E0002197
:10516000112F01DB112000E0781CCDE9000106A918
:105170000EA8FFF7DDFCDDE90F010E9A0391002177
:10518000009207F1010A04914DE04FF000400097B2
:10519000CDE9011006A90EA8FFF7CAFCDDE90F0250
:1051A00003920E9B11990022DDF80CA0009304924B
:1051B00011B9791C00EB010AB7EB0A0004D4C0F165
:1051C000FF3007F1010A0490AAEB0700019044E0C8
:1051D000012F00DA01270021112F01DD112000E04D
:1051E0003846CDE9000106A90EA8FFF7A1FCDDE9CC
:1051F0000F010E9A0391002104910092BA462107F3
:105200000CD40399514500DA8A46BAF1010F05DD45
:10521000009AAAF10101515C302908D0B84202DAA3
:1052200010F1040F06DA0121CDE9011015E0AAF111
:105230000101E9E7002805DC049901440491AAEB87
:10524000000102E0411C514500DD8A460499401AE4
:10525000401C01904FF000400290200704D40198B8
:10526000504501DBCDF8048000208DF84F000298F6
:105270000DF14F07B0F1004F25D02B200E90029872
:105280004FF0020800280CDA404202902D200E90C8
:1052900007E00A210298FFF7FDF93031029007F884
:1052A000011DB8F10001A8F10108F2DC0298002804
:1052B000EFD1791E0E980870307800F0200040F091
:1052C000450007F8020D12A8C01B00F1070814984A
:1052D000007800B1012000EB0A01019801EBE071B8
:1052E00005984144401A401E0590E00306D45B46F1
:1052F0002146179A059800F05DF805441498007847
:1053000018B15A46179990476D1CE00324D55B46A7
:105310002146179A059800F04DF805441CE00498C2
:10532000002807DBDDE90301884203DD0098405CCB
:10533000179901E0179930205A469047049805F1D3
:105340000105401C04900198401E019004D12E20BC
:105350005A46179990476D1CBAF10001AAF1010A4B
:10536000DDDC05E017F8010B5A46179990476D1CD4
:10537000B8F10001A8F10108F4DC5B462146179A58
:105380000598ABE62D0000002B0000002000000077
:105390002DE9F041044600251E461746880404D432
:1053A00005E039462020B0476D1C641EF9D528461B
:1053B000BDE8F0812DE9F041044600251E469046E7
:1053C000C80301D5302700E02027880404D505E074
:1053D00041463846B0476D1C641EF9D52846BDE8E5
:1053E000F0810000891112239B322446AD573665A7
:1053F000BF74488CC19D5AAFD3BE6CCAE5DB7EE951
:10540000F7F88110080193331A22A5562C47B77577
:105410003E64C99C408DDBBF52AEEDDA64CBFFF930
:1054200076E802218B30100299132667AF76344458
:10543000BD554AADC3BC588ED19F6EEBE7FA7CC810
:10544000F5D983310A2091121803A7772E66B55437
:105450003C45CBBD42ACD99E508FEFFB66EAFDD8F0
:1054600074C904428D5316619F702004A915322718
:10547000BB364CCEC5DF5EEDD7FC6888E1997AABD0
:10548000F3BA85520C4397711E60A1142805B337F7
:105490003A26CDDE44CFDFFD56ECE9986089FBBBB0
:1054A00072AA06638F7214409D512225AB343006D8
:1054B000B9174EEFC7FE5CCCD5DD6AA9E3B8788A90
:1054C000F19B87730E6295501C41A3352A24B116B7
:1054D0003807CFFF46EEDDDC54CDEBB962A8F99A70
:1054E000708B088481951AA793B62CC2A5D33EE190
:1054F000B7F04008C919522BDB3A644EED5F766D68
:10550000FF7C899400859BB712A6ADD224C3BFF15E
:1055100036E0C1184809D33B5A2AE55E6C4FF77D47
:105520007E6C0AA583B4188691972EE3A7F23CC03F
:10553000B5D14229CB38500AD91B666FEF7E744C27
:10554000FD5D8BB502A499961087AFF326E2BDD01E
:1055500034C1C3394A28D11A580BE77F6E6EF55C07
:105560007C4D0CC685D71EE597F42880A1913AA3FF
:10557000B3B2444ACD5B5669DF78600CE91D722FE7
:10558000FB3E8DD604C79FF516E4A9902081BBB3DE
:1055900032A2C55A4C4BD7795E68E11C680DF33FC7
:1055A0007A2E0EE787F61CC495D52AA1A3B03882BF
:1055B000B193466BCF7A5448DD59622DEB3C700EA7
:1055C000F91F8FF706E69DD414C5ABB122A0B9929E
:1055D0003083C77B4E6AD5585C49E33D6A2CF11E87
:1055E000780FFF005EBCE2613FDD83C29C7E20A39A
:1055F000FD1F419DC3217FFCA2401E5F01E3BD3E14
:105600006082DC237D9FC1421CFEA0E1BF5D038060
:10561000DE3C62BEE0025CDF81633D7C22C09E1DF9
:1056200043A1FF4618FAA427799BC584DA3866E5BA
:10563000BB5907DB856739BAE406581947A5FB78DB
:1056400026C49A653BD987045AB8E6A7F91B45C614
:10565000987A24F8A6441A99C7257B3A6486D85BC1
:1056600005E7B98CD2306EEDB3510F4E10F2AC2F6E
:105670007193CD114FADF3702ECC92D38D6F31B2AB
:10568000EC0E50AFF1134DCE90722C6D33D18F0CC8
:1056900052B0EE326C8ED0530DEFB1F0AE4C129191
:1056A000CF2D73CA947628ABF517490856B4EA692A
:1056B00037D58B5709EBB536688AD495CB2977F463
:1056C000AA4816E9B7550B88D6346A2B7597C94A8C
:1056D00014F6A8742AC896154BA9F7B6E80A54D749
:1056E000896B35000457000800000020D00000003E
:1056F000104B0008D4570008D00000200808000014
:10570000204B0008007A030A00000000000000009F
:105710000102030406070809000000000102030457
:105720000102030406070809FFFF00000C00000047
:10573000170000000C000000170000000C00000023
:10574000170000000C000000170000000C00000013
:10575000170000000C000000170000000C00000003
:10576000170000000C000000170000000C000000F3
:10577000170000000C000000170000000C000000E3
:10578000170000000C000000170000000C000000D3
:10579000170000000C000000170000000C000000C3
:1057A000170000000C0000001700000000000000BF
:1057B000D007000000000000000000000000000012
:1057C00000000000000000000000000000000000D9
:0457D00000000000D5
:040000050800018965
:00000001FF
